{
  "contractName": "Peerism",
  "abi": [
    {
      "constant": true,
      "inputs": [],
      "name": "numSkills",
      "outputs": [
        {
          "name": "",
          "type": "uint256"
        }
      ],
      "payable": false,
      "stateMutability": "view",
      "type": "function"
    },
    {
      "constant": true,
      "inputs": [],
      "name": "owner",
      "outputs": [
        {
          "name": "",
          "type": "address"
        }
      ],
      "payable": false,
      "stateMutability": "view",
      "type": "function"
    },
    {
      "constant": true,
      "inputs": [],
      "name": "fallbackTriggered",
      "outputs": [
        {
          "name": "",
          "type": "bool"
        }
      ],
      "payable": false,
      "stateMutability": "view",
      "type": "function"
    },
    {
      "inputs": [
        {
          "name": "_numSkills",
          "type": "uint8"
        }
      ],
      "payable": false,
      "stateMutability": "nonpayable",
      "type": "constructor"
    },
    {
      "payable": true,
      "stateMutability": "payable",
      "type": "fallback"
    },
    {
      "anonymous": false,
      "inputs": [
        {
          "indexed": true,
          "name": "_from",
          "type": "address"
        },
        {
          "indexed": true,
          "name": "_id",
          "type": "bytes32"
        },
        {
          "indexed": false,
          "name": "_value",
          "type": "uint256"
        }
      ],
      "name": "SkillEvent",
      "type": "event"
    },
    {
      "constant": false,
      "inputs": [
        {
          "name": "_id",
          "type": "bytes32"
        }
      ],
      "name": "skill",
      "outputs": [],
      "payable": true,
      "stateMutability": "payable",
      "type": "function"
    }
  ],
  "bytecode": "0x608060405234801561001057600080fd5b506040516020806102bc83398101806040528101908080519060200190929190505050336001806101000a81548173ffffffffffffffffffffffffffffffffffffffff021916908373ffffffffffffffffffffffffffffffffffffffff1602179055508060ff166000819055506000600160006101000a81548160ff02191690831515021790555050610214806100a86000396000f300608060405260043610610062576000357c0100000000000000000000000000000000000000000000000000000000900463ffffffff1680636febc04d1461007e5780638da5cb5b146100a9578063a7095c2314610100578063acf94ed514610124575b60018060006101000a81548160ff021916908315150217905550005b34801561008a57600080fd5b50610093610153565b6040518082815260200191505060405180910390f35b3480156100b557600080fd5b506100be610159565b604051808273ffffffffffffffffffffffffffffffffffffffff1673ffffffffffffffffffffffffffffffffffffffff16815260200191505060405180910390f35b610122600480360381019080803560001916906020019092919050505061017e565b005b34801561013057600080fd5b506101396101d5565b604051808215151515815260200191505060405180910390f35b60005481565b6001809054906101000a900473ffffffffffffffffffffffffffffffffffffffff1681565b80600019163373ffffffffffffffffffffffffffffffffffffffff167f4c04335bbc03a34e52c6566c53d973ba75304c76d549f381581c8c734cc1603760016040518082815260200191505060405180910390a350565b600160009054906101000a900460ff16815600a165627a7a7230582068b8d7f934d7dc4ad3d1e0913847c59b4017f466f81f36cf2fa79a2ab6380e1b0029",
  "source": "pragma solidity ^0.4.18;\n\ncontract Peerism {\n\n  uint public numSkills;\n\n  bool public fallbackTriggered;\n\n  event SkillEvent(\n    address indexed _from,\n    bytes32 indexed _id,\n    uint _value\n  );\n\n  struct Skill {\n    uint weight;\n  }\n\n  address public owner;\n\n  function Peerism(uint8 _numSkills) public {\n    owner = msg.sender;\n    numSkills = _numSkills;\n    fallbackTriggered = false;\n  }\n\n  function skill(bytes32 _id) public payable {\n    SkillEvent(msg.sender, _id, 1);\n  }\n\n  function() public payable {\n    fallbackTriggered = true;\n  }\n}\n\n\n",
  "sourcePath": "/var/www/appcoins-metatransaction/server/contracts/Peerism.sol",
  "compiler": {
    "name": "solc",
    "version": "0.4.24+commit.e67f0147.Emscripten.clang"
  },
  "schemaVersion": "2.0.1",
  "updatedAt": "2018-11-14T11:33:00.086Z"
}